:10000000F8FF002011040000FF2B0000FF2B000070
:10001000FF2B0000FF2B0000FF2B0000FF2B000038
:10002000FF2B0000FF2B0000FF2B0000FF2B000028
:10003000FF2B0000FF2B0000FF2B0000FF2B000018
:10004000FF2B0000FF2B0000FF2B0000FF2B000008
:10040000FFFFFFFFFFFFFFFFFFFFFFFFFEFFFFFFFD
:1004100062B603F07DF9FEE72DE9F04FA1B0824608
:1004200002AE002017461D46029170620DF144088D
:100430000AE017F8011B0298D0470290002800F04C
:10044000D482706A401C7062387808B9706ACEE253
:100450002528EED10020F06030617061B061F0615C
:10046000306201E040F0010017F8011F2029F9D0A7
:1004700023290DD02B2904D02D2906D030290AD0CC
:100480000CE040F0020080B2EEE740F00400FAE732
:1004900040F00800F7E740F01000F4E72A290DD1FA
:1004A00029680A1D2A600968F162002904D54942B9
:1004B00040F00400F16280B27F1C13E00021F16281
:1004C0000BE0F16A6FF00043994205D001EB810324
:1004D00002EB43013039F1627F1C3A78A2F130011E
:1004E0000A29EED339782E2903D04FF0FF31B162BB
:1004F0001EE017F8011F2A2906D129680A1D2A6063
:100500007F1C0968B16213E00021B1620BE0B16A9F
:100510006FF00043994205D001EB810302EB4301E8
:100520003039B1627F1C3A78A2F130010A29EED34A
:1005300030860FF6AC20397800F070FD08B117F85E
:10054000010B8DF83A009DF83A00682802BF39780F
:100550006829622005D06C2804BF38786C2803D144
:1005600071208DF83A007F1C11A8B0603978B1F184
:10057000250023D02038022840F2B980133800F03B
:10058000E1800B3800F07781401E00F02081401E92
:10059000022840F2AC80001F00F01981401F7BD080
:1005A000401E00F0CF80401E22D0C01E0BD0801E07
:1005B00000F0C880C01E00F0C58064E1F068411CF6
:1005C000F160252169E12868011D29600068B26A8F
:1005D0007060002A02D500F02DFD07E0002100F038
:1005E00045FD00281ABF7168401AB06A306156E1B3
:1005F0002868011D296000210068CDE900014FF045
:100600003C0E11A87060DDE9000111B908B9B26AA9
:10061000CAB10206120FA0EB02123032AEF1010392
:10062000D2B29E463A2AA8BF2732000903F8082012
:1006300040EA0170090908BF002804D0726811ABB4
:1006400073449A42E5D311A971447160CEF13C0024
:10065000B16A3061884207DA081AB0614FF6EF716B
:10066000308E084030861AE1002940F1188196F852
:10067000301001F01401102940F01181F16AF26884
:10068000891AB269891AA1EB000EBEF1010FC0F2FE
:100690000681C6F818E002E19DF83A00622818D0F9
:1006A000682806D06A280BD06C2819D0712807D08A
:1006B00016E02868011D29600068716A0180EEE07B
:1006C0002A68101D28601268706AC117C2E900010B
:1006D000E5E02868011D29600068716A0170DEE0AC
:1006E0002868011D29600068716A0160D7E02868E8
:1006F000C01D20F00700286000F108022A60D0E940
:100700000023CDE90023002B04D5F068421CF260E1
:100710002D220DE0308E820704D5F068421CF26075
:100720002B2205E0C00705D5F068421CF2602022AC
:1007300000F80820F06811AA8018706000A800F086
:10074000DDF9ACE09DF83A006C2808BF2A6811D0AA
:10075000712808BF2A6802D02A686A280AD1D21DE7
:1007600022F007022A60144604F108022A60D4E944
:10077000002303E0131D2B6000231268CDE9002342
:10078000682808BF92B207D0622808BFD2B203D04F
:10079000742818BF7A2802D10023CDE9002396F8E7
:1007A000300000075FD5DDE90023002B08BF002AD9
:1007B00059D041F02000782855D1F068302200F857
:1007C0000820401C421CF26000F808104BE09DF825
:1007D0003A0062280CD0682810D06A281AD06C28F9
:1007E00023D0712816D074281FD07A280CD01CE092
:1007F0002868021D2A6090F900201AE02868021D6E
:100800002A60B0F9002014E02868021D2A60002345
:1008100002680FE02868C01D20F00700286000F182
:1008200008022A60D0E9002304E02868021D2A603B
:100830000268D317CDE90023002B04DAF068421CCC
:10084000F2602D220DE0308E820704D5F068421C44
:10085000F2602B2205E0C00705D5F068421CF2606B
:10086000202200F80820F06811AA8018706000A803
:1008700000F0C0F813E0F068411CF16029680A1D1F
:100880002A60096809E0F068421CF260252200F83D
:10089000082021B1F068421CF26000F80810F06AEC
:1008A000F168401AB169401A3169401AF169401A79
:1008B0007169401A316AA0EB010996F830007F1C7B
:1008C000400710D420208DF84000002409E00123C7
:1008D00010AA00A9504600F06BFB002840F085806C
:1008E000641C4C45F3DBF4680DF1440B0AE01BF883
:1008F000011B0298D0470290002876D0706A401CF5
:100900007062641E002CF2D130208DF840004FF050
:10091000000BB46909E0012310AA00A9504600F0B9
:1009200047FB002861D10BF1010BA345F3DB3469D0
:10093000D6F804B00AE01BF8011B0298D0470290D9
:10094000002852D0706A401C7062641E002CF2D1E4
:1009500030208DF840004FF0000BF46909E00123CE
:1009600010AA00A9504600F023FB00283DD10BF14E
:10097000010BA345F3DB30697168746900EB010B6F
:1009800009E01BF8011B0298D047029068B3706A17
:10099000401C7062641E002CF3D130208DF84000A2
:1009A0004FF0000B346A08E0012310AA00A950465A
:1009B00000F0FEFAC8B90BF1010BA345F4DB96F881
:1009C000300040077FF540AD20208DF84000002426
:1009D00000E0641C4C45BFF637AD012310AA00A906
:1009E000504600F0E5FA0028F3D04FF0FF3021B078
:1009F000BDE8F08F2DE9FA4E05460A462F696F2AA9
:100A000008BF082405D041F02000782814BF0A242C
:100A10001024D5E900013C2681468B46642A18BF84
:100A2000692A05D1002903DAD9F100096BEB4B0BD8
:100A3000BBF1000F08BFB9F1000F0CD1286B50B902
:100A4000082C36D195F83800000732D530203B26E7
:100A500087F83B002DE0E31748465946224600F050
:100A600031FBA4FB0023A9EB02023032A6F1010AFC
:100A7000D2B256463A2A03DB9DF80030513B9A1811
:100A80000AF8072081465FEA010B08BFB9F1000FA1
:100A900003D0E868F1198842DDD3082C09D195F814
:100AA0003800000705D5F05D302802D0761E3020D2
:100AB000F055C6F13C00A861F119E960296B884244
:100AC00008DA081A28624FF6EF71288F0840288745
:100AD000BDE8F38E00290ED595F8381001F0140109
:100AE000102908D1696B6A69891A2A6A891A081A51
:100AF0000128A8BF2862BDE8F38E00002DE9F34F5E
:100B00008BB0D0E90089006B01AF002848BF0620F8
:100B100005D404BF41F02000672802D101200B99C1
:100B2000086340F2FF720B984168C1F30A5090428B
:100B300020D1080302BF0B98006800280AD10B9946
:100B4000032088619DF8300061381A2858D30FF2CD
:100B5000A44109E00B99032088619DF830006138B9
:100B60001A284AD30FF284410B98C068032200F080
:100B700021FB00E1012807DA0B9800F056FB012861
:100B800002DB00230026EDE00B9A526840F2FE31B2
:100B900061F31E520B994A6040F2FE31461A4046FC
:100BA00049460022002300F061FB38BF89F000496C
:100BB00036B247F2975070434949DFF828B190FBAD
:100BC000F1F636B2C6F107079246012F1BDBF80794
:100BD00007D552465B464046494600F05FFB8046DB
:100BE00089467F105046594652465B4600F056FBF8
:100BF00082468B46002FEAD126E00FF2EC31B3E7B4
:100C00000FF2EC31B0E77F420024374D12E0F807D5
:100C100007D552465B462046294600F03FFB044676
:100C20000D467F105046594652465B4600F036FB53
:100C300082468B46002FEAD14046494622462B4643
:100C400000F0FEFB804689469DF8300040F020050C
:100C5000662D0CBF06F10A0006200B99096B471898
:100C6000142FA8BF132730208DF804000DF10504C0
:100C7000DFF878B0012F3BDB4046494600F004FD29
:100C8000014604F1080204234FF00A0CB1FBFCFCFE
:100C90000CEB8C04A1EB4401303102F8011D0A2158
:100CA000BCFBF1FE0EEB8E04ACEB44043034714619
:100CB00002F8014D5B1EE7D1083F02F10804012F45
:100CC000D8DB00F0F7FC02460B464046494600F0F0
:100CD000FFFC00225B4600F0E1FA80468946CBE744
:100CE000A0860100000024400000F03F84D7974117
:100CF0000DF10500201A0DF1050702E0401E761ED9
:100D00007F1C39783029F9D0662D02D136B2711C9A
:100D100003E0652D0CBF012100210B9A126B8B188B
:100D20001BB29842B8BF03461BB219001AD48142C5
:100D300004DAC85D3528A8BF392000DA3020CA1986
:100D4000521E00E05B1E12F80159491E8542F9D07F
:100D5000392802D1C85D401CC855002902D57F1E24
:100D60005B1C761C36B29DF830100B9800961BB2B7
:100D70003A4600F003F80DB0BDE8F08F2DE9F047DA
:100D800086B006468A4690461D4600F07EFD406AC3
:100D9000376B90F80090012D02DA01250FF25828E8
:100DA0004AF02000BDF93840662808BF641C13D003
:100DB000672840F0878014F1040F72DBBC4270DAC0
:100DC00096F83800641C000702D4BD42B8BF2F4615
:100DD00024B23F1B48BF0027F068B16924B2012C40
:100DE00021DA30234A1C0B54012F03DA96F838100D
:100DF000090702D502F80090521CB261E742B8BF61
:100E00007C4224B26142E7197162AF42B8BF3D46ED
:100E10002DB2F5612A46B3694146181800F0CAF9A7
:100E2000781BB062ADE00818A54216DA2A464146A2
:100E300000F0C0F9B1696918B161601B7062012FDF
:100E400003DA96F83800000705D5F06801F800903D
:100E5000F069401CF061B76293E02246414600F021
:100E6000A9F9B06920182D1B012F03DA96F8381064
:100E7000090703D5F16800F80190401C2DB2B0615C
:100E8000AF42B8BF3D46F3682DB22A4604EB0801D5
:100E9000C01800F08FF9B0692818B061781B706233
:100EA0006FE0BD4204DA96F83810090758BF2F46A4
:100EB0007F1E48BF0027BAF1670F0CBF4FF0650ACD
:100EC0004FF0450AB169F06818F8013B0B544A1C11
:100ED000012F05DA96F83810090758BFB26115D509
:100EE00002F80090531CB361012F0FDB6D1E2DB271
:100EF000AF42B8BF3D462DB22A464146181800F011
:100F000059F9B0692818B061781B7062B069F1684E
:100F100000EB0108200008F801AB03D42B2008F8EF
:100F2000010B03E02D2108F8011B6442002502AFEC
:100F300008E00A2200A800F0C1FC019807F8010BA4
:100F40006D1C009C21B20129F3DA022D06DA4AF069
:100F50002000652804BF302008F8010B4DB930206F
:100F600008F8010B07E06D1E02A8285C303008F875
:100F7000010B012DF7DAB069F1684018A8EB000009
:100F8000F06196F8380000F0140010280DD1706957
:100F9000B1690818716A0818F1690818B16A081867
:100FA000716B8842BCBF081A306206B0BDE8F0879A
:100FB000F8B504460D4616461F46002004E0E86AD0
:100FC000401CE8627F1E002047B116F8011BA8688C
:100FD000A047A8600028F2D14FF0FF30F2BD00001A
:100FE000686A6C747A4C00006E616E004E414E006F
:100FF000696E6600494E4600300050F8041B61B12E
:1010000050F8042BD30744BFA9F101039A18002319
:1010100042F8043B091FFAD1EFE770470278C9B2E2
:101020008A421AB11CBF10F8012FF9E718BF00203F
:10103000704701FE00F10103810704D010F8011B85
:1010400089B18107FAD10268B2F10131914311F0FF
:10105000803F04BF50F8042FF6E710F8011B11B1D0
:1010600010F8011BFBE7C01A7047FE01C9B28307E5
:1010700006D0521E22D310F8013B9942F7D11FE04F
:10108000083A13D302F1040241EA012141EA014185
:1010900050F8043B121F21BF4B40A3F1013C2CEA46
:1010A000030C1CF0803FF3D0C9B2001F083210F8C7
:1010B000013B521E28BF91EA030FF8D818BF012048
:1010C000401E70471B4213D1094236D12AB18446D3
:1010D000B0FBF2F002FB10C2704700F0F7BBFCD38C
:1010E0000022002370470B000200002100207047FF
:1010F000904271EB030CF6D370B5B1FA81F4B3FAF8
:1011000083F52C1BA340C4F1200532FA05F63343C6
:10111000A2405FF00046E64002E05B085FEA320270
:10112000841A71EB030524BF204629467641F4D387
:1011300002000B003000002170BD012ACFD970B52C
:10114000140C20D0B1FA81F4B2FA82F5C4F1200473
:101150006419B4F12006D6D3B2405FF00044F440E5
:10116000002502E052085FEA3303C61A71EB020E53
:1011700024BF3046714664416D41F3D302000B0039
:101180002000290070BD0C46B1FBF2F102FB1145B5
:101190002D0445EA1045B5FBF2F402FB145580B26C
:1011A00040EA0545B5FBF2F002FB105240EA04406C
:1011B00070BD000062B38B0708D0521E11F8013BCE
:1011C00000F8013B00F024808B07F6D1830740F044
:1011D000208000BF103A07D330B4B1E83810103A7D
:1011E000A0E83810F9D230BC530724BFB1E808108A
:1011F000A0E8081044BF51F8043B40F8043BD20774
:1012000024BF31F8022B20F8022B44BF0B78037067
:101210007047083A07D3B1E80810083A40F8043B91
:1012200040F804CBF7D25307E4E730B4436803F047
:10123000004201211B031B0B436004BF0368002B0A
:1012400008D10DE00368DD0F45EA440444605B000B
:101250000360491E4468E302F4D523031B0B43607B
:1012600043681A434260084630BC70474FF4001C84
:101270001CEB410F94BF1CEB430F09E041EA030C48
:1012800050EA4C0C52EA0C0C03D2994208BF90422F
:10129000704714BF8B42824270470000B0B581EAAC
:1012A000030C0CF0004C40F2FF7515EA11541DBF01
:1012B00015EA1357AC42AF4239E0E41923EA45532B
:1012C00043F48013C90241F0004141EA505EC70275
:1012D0001100A7FB020200284FF00000EEFB0120E6
:1012E0004FF00001E3FB072118BF42F00102401854
:1012F00000214941E3FB0E01A4F580640F0302D2F3
:1013000052004041494154F101046CDD470872F13B
:10131000004250F1000051EB0451A1F580115CBF77
:1013200041EA0C01B0BD4CEA05510020B0BD05EA10
:101330001357AC4214BFAF4241E050EA410E1CBF0C
:1013400052EA430E02E061460020B0BD24423C4414
:101350001BD15FEA070EF6D0090302BF0146002049
:10136000AEF1140EB1FA81F7AEEB070401FA07FEF5
:101370000C37C7F1200100FA07F7C8404EEA000E0B
:1013800023EA455343F48013A2E733F00043B3FA52
:1013900083F704BFB2FA82FE77440B3FE41BB7F138
:1013A000200E2FBF02FA0EF3BB40C7F1200E22FA27
:1013B0000EFE38BF43EA0E03BA40641C82E750EACF
:1013C000410E14BF52EA430E6FF000014FF40017B4
:1013D00017EB430F8ABF194617EB410FB5E74CEAED
:1013E00005510020B0BDD4F10104B4F120070FDA9B
:1013F000C4F12007520828BF42F0010210FA07F595
:1014000001FA07F7E1BF2A43E0403843E1400FE02B
:10141000352C98DCC7F1200452EA400220FA07F28A
:1014200018BF42F0010231FA07F0A1400A4300213F
:1014300072F1004250F1000051EB0C01B0BD000010
:10144000F0B540F2FF7581EA030C0CF0004C15EA90
:1014500011541DBF15EA1357AC42AF42E5E0BC4141
:10146000C1F31301C3F31303801A994143F48013AA
:1014700004D2641E4000494180185941C90241EA22
:101480005051B1FBF3F603FB1611A2FB0675D7EB27
:10149000C020A94102D2761E80185941C90241EAF2
:1014A0005051B1FBF3FE03FB1E11A2FB0E75D7EBEF
:1014B000C020A94103D2AEF1010E80185941890222
:1014C00041EA9051760546EA8E2EB1FBF3F603FB16
:1014D0001611A2FB0675D7EB8020A94102D2761E19
:1014E00080185941C90241EA50514EEA060EB1FB3B
:1014F000F3F603FB1611A2FB0675D7EBC020A9413A
:1015000002D2761E80185941C90241EA5051B1FBFE
:10151000F3F703FB1711A2FB0735D3EBC020A9415A
:1015200067F100070CBF004247F0010766F3D527BB
:101530004FEA1E31B80814F5806412DDBD0775F15D
:10154000004250EB0E5051EB045111F5801F5CBF6F
:1015500041EA0C01F0BD4CF07F6141F0E041002018
:10156000F0BDBD076D0840EA0E5041F48011D4F182
:101570000104B4F120060ADAC4F120060200E040BA
:1015800001FA06F3E1401843B24015430EE0342C53
:1015900013DCC6F1200445EA40056D0820FA06F286
:1015A000154321FA06F0A1400D43002175F10042D8
:1015B00050F1000051EB0C01F0BD00205FEA0C017E
:1015C000F0BDCFB992185B41B3FA83F704BFB2FA0A
:1015D00082F6BF190B3FB7F120062FBF02FA06F3C0
:1015E000BB40C7F1200622FA06F638BF3343BA40A3
:1015F0001CB1E419641E33E77F4231F00041B1FAB7
:1016000081F404BFB0FA80F6A4190B3CB4F12006B3
:101610002FBF00FA06F1A140C4F1200620FA06F619
:1016200038BF3143A0403C1B1AE7AC421ABF05EA61
:101630001357AF4212E050EA41061CBF52EA43067C
:10164000BFE750EA4107304661461CBF41EA0551F9
:10165000F0BD52EA430C08BFC143F0BD00204FF477
:10166000001616EB410F98BF16EB430F08BF16EBA1
:10167000410F24BFC14305E016EB430F0CBF614689
:101680004CEA0551F0BD0000400D40EAC120490080
:1016900080F00D8040F00040490DA1F58061491CAB
:1016A00005D4D1F11F0154BFC840C01770474FF097
:1016B00000007047010000BF09D0B0FA80F18840F7
:1016C000C91CC1F58461090501EBD02140057047B3
:1016D00070B44FF0004591EA030F44BF6B4000F037
:1016E000F7B800BF841A71EB030604D26E40001BEA
:1016F000B141121973414FF4001C1CEB410F34BF70
:101700007CEB430684E00C0DA4EB1356362E7DDCF7
:10171000012E43DC45EAC32343EA525312BFD202EF
:1017200092025B08240545EAC12141EA5051D2EBFF
:10173000C020994125D407D1B0FA80F610FA06F1FD
:1017400064D00020203608E0B1FA81F6B140C6F13D
:10175000200220FA02F21143B0404FEAF474B4EBD5
:10176000465434F001064FEA74040AD8D6F5001640
:10177000760D04F00044F04061FA06F25040F1406A
:101780004840C00A40EA415021F0004128BF5FEACA
:10179000500550F1000044EBD12137E045EAC32366
:1017A000DB0A45EAC121C90AB6F120050EDD42EA8D
:1017B0000242120CC5F1200603FA06F6EB4042EA9B
:1017C00006056D42984161F100010DE062FA06F5EF
:1017D000F240554063FA06FC82EA0C02F3405A409C
:1017E0006D42904161EB030111F4801F05D1641E2D
:1017F000620502D06D004041494121F48011430847
:1018000075F1004350F1000041EB045170BC70478A
:101810001CEB410F15D223F0004352EA43060BD0D4
:101820004FEA4C0CBCEB410F04D80C0D661E342E55
:10183000B7DDEBE7801A994150EA410608BF002165
:10184000E4E708BF1CEB430F28BF6FF00001DDE7A2
:1018500080B5134800F0A6F80FF24801016041601E
:101860008160C1600161416181610FF23C024262AD
:101870008162C162016341630FF2300282630FF241
:101880003402C2630164416401BD10B5044800F034
:1018900089F80446206808B9FFF7DAFF204610BD32
:1018A0001411FF1F000000002E00000066616C7321
:1018B00065000000747275650000000091FBF2F392
:1018C00003FB1211C0E900317047000070470000AF
:1018D000841A71EB030603D2001BB1411219734144
:1018E0004FF4001C1CEB410F34BF7CEB430443E07E
:1018F0000C0DA4EB1356352E50DC45EAC323DB0A4E
:1019000045EAC121C912B6F120050DDD63FA05F6DD
:10191000EB4086EA0305124218BF45F00105C018E6
:1019200051F100010CD213E062FA06F5F240554085
:10193000F3415A40B340F3405A408018594107D30D
:1019400049085FEA30005FEA350528BF45F0010528
:1019500001F58011420875F1004250F1000041EBA1
:10196000045170BC4FF4001C1CEB410F38BF704792
:101970000020090D090570471CEB410F10D252EAF7
:1019800043060BD0BCEB410F05D80C0DAB43661ED4
:10199000342EB5DD02E0AB438018594170BC70476E
:1019A00070BC70477047000000000000000000009D
:1019B0000000000000000000000000000000000027
:1019C0000000000000004E6F6E4D61736B61626C31
:1019D0006500000000486172644661756C74000027
:1019E000000000004D656D4D616E6167656D656E4F
:1019F0007400004275734661756C7400000000004D
:101A0000000055736167654661756C7400000000E5
:101A100000000000000000000000000000000000C6
:101A200000000000000000000000000000000000B6
:101A300000000000000000000000000000000000A6
:101A400000000000000000000000000000535643AA
:101A5000616C6C00000000000000000044656275CD
:101A6000674D6F6E69746F72000000000000000027
:101A70000000000000000000000050656E64535636
:101A80000000000000000000005379735469636B8C
:101A90000000000000000000444D41300000000044
:101AA00000000000000000444D4131000000000033
:101AB000000000000000444D413200000000000022
:101AC0000000000000444D41330000000000000011
:101AD00000000000444D4134000000000000000000
:101AE000000000444D4135000000000000000000EF
:101AF0000000444D413600000000000000000000DE
:101B000000444D41370000000000000000000000CC
:101B1000444D413800000000000000000000004477
:101B20004D41390000000000000000000000444D5D
:101B300041313000000000000000000000444D4131
:101B4000313100000000000000000000444D413130
:101B50003200000000000000000000444D4131331D
:101B600000000000000000000000444D413134003E
:101B7000000000000000000000444D41313500002D
:101B80000000000000000000444D415F4572726F8C
:101B9000720000000000004D434D000000000000F6
:101BA0000000000000004654464C00000000000009
:101BB0000000000000526561645F436F6C6C6973E4
:101BC000696F6E004C56445F4C5657000000000091
:101BD0000000004C4C570000000000000000000016
:101BE00000005761746368646F67000000000000C4
:101BF00000524E47000000000000000000000000FE
:101C0000493243300000000000000000000000499D
:101C1000324331000000000000000000000053507B
:101C2000493000000000000000000000005350494F
:101C30003100000000000000000000005350493255
:101C4000000000000000000000000043414E305F33
:101C50004F525F4D425F6275660043414E305F42B6
:101C600075735F4F666600000043414E305F4572FA
:101C7000726F72000000000043414E305F54785F85
:101C80005761726E696E6743414E305F52785F579D
:101C900061726E696E6743414E305F57616B655F7D
:101CA00055700000005265736572766564353100C9
:101CB000000000005265736572766564353200007D
:101CC00000000043414E315F4F525F4D425F6275ED
:101CD000660043414E315F4275735F4F6666000098
:101CE0000043414E315F4572726F72000000000088
:101CF00043414E315F54785F5761726E696E67433E
:101D0000414E315F52785F5761726E696E67434131
:101D10004E315F57616B655F55700000005265730F
:101D200065727665643539000000000052657365A0
:101D30007276656436300000000000554152543020
:101D40005F52585F54580000000055415254305FB4
:101D500045525200000000000055415254315F527C
:101D6000585F54580000000055415254315F4552AD
:101D70005200000000000055415254325F52585F3B
:101D800054580000000055415254325F45525200F1
:101D9000000000000055415254335F52585F5458C0
:101DA0000000000055415254335F4552520000007C
:101DB00000000055415254345F52585F545800009F
:101DC000000055415254345F45525200000000005B
:101DD0000055415254355F52585F5458000000007E
:101DE00055415254355F45525200000000000041F9
:101DF00044433000000000000000000000004144A7
:101E000043310000000000000000000000434D507E
:101E1000300000000000000000000000434D503181
:101E20000000000000000000000000434D503200A0
:101E30000000000000000000000046544D3000008B
:101E400000000000000000000046544D310000007A
:101E5000000000000000000046544D320000000069
:101E600000000000000000434D540000000000008E
:101E70000000000000005254430000000000000079
:101E800000000000005265736572766564383300A7
:101E90000000000050495430000000000000000025
:101EA0000000005049543100000000000000000014
:101EB0000000504954320000000000000000000003
:101EC00000504954330000000000000000000000F2
:101ED00050444230000000000000000000000055A7
:101EE0005342300000000000000000000000555385
:101EF00042444344000000000000000000454E45FD
:101F0000545F313538385F54696D6572454E4554BC
:101F10005F5472616E736D69740000454E45545F85
:101F200052656365697665000000454E45545F451E
:101F300072726F72000000000049325330000000DE
:101F4000000000000000000053444843000000006F
:101F50000000000000000044414330000000000089
:101F60000000000000004441433100000000000078
:101F70000000000000545349300000000000000041
:101F8000000000004D43470000000000000000007A
:101F90000000004C5054696D6572000000000000A4
:101FA000000052657365727665643130320000005E
:101FB00000504F525441000000000000000000009B
:101FC000504F52544200000000000000000000503A
:101FD0004F52544300000000000000000000504F2A
:101FE00052544400000000000000000000504F5216
:101FF00054450000000000000000000052657365B9
:102000007276656431303800000000526573657285
:102010007665643130390000000052657365727670
:102020006564313130000000005265736572766579
:102030006431313100000000526573657276656469
:10204000313132000000005265736572766564318B
:10205000313300000000526573657276656431317A
:102060003400000000526573657276656431313565
:102070000000000052657365727665643131360088
:102080000000005265736572766564313137000077
:102090000000526573657276656431313800000066
:1020A0000052657365727665643131390000000055
:1020B00000F00F4040F00F4080F00F40C0F00F40A4
:1020C00000F10F4066000A1D32000701640007108E
:1020D0006E000406780004088200040A8C00040CD8
:1020E0009600040EA0000410AA000412B400041408
:1020F000BE000416C8000418D200041ADC00041C38
:10210000E100041DE600041EEB00041FF4000317A9
:10211000FA000318130101062C010214000109083A
:102120000090044000A0044000B0044000C00440FF
:1021300000D0044000A0064000B0064000C00640A9
:1021400000D0064000A00E4000B00E406A6E6B6CDE
:10215000676D4E4F34353637010000000DC1110058
:1021600009030CD01240173F185019031A78320097
:10217000A00A63E0ACFF650C6600670029142C1E02
:102180002A007E0C7F16802A814E8261836F847BB9
:102190008586868E879788A489AF8AC58BD78CE879
:1021A0008D204A00491347084B144C1746052299C5
:1021B0002303A6049B009CFFAB069E119F02000018
:1021C0003100000002040101C410FF1F1411FF1FA1
:1021D000C410FF1FC410FF1FC410FF1F690CFF1F96
:1021E000500CFF1F00000000000000000000000075
:1021F00000000000000000000000000000000000DF
:1022000000000000DFF800F00D0EFF1F40B2DFF805
:10221000981331F8201040B20128C0F26A8140B210
:10222000162880F266810022DFF880331A7089B2A6
:102230003D2904DA0022DFF874335A7077E089B25E
:10224000792904DA0122DFF864335A706FE089B229
:10225000B52904DA0222DFF854335A7067E089B2F4
:10226000F12904DA0322DFF844335A705FE089B2BF
:10227000B1F5967F04DC0422DFF830335A7056E063
:1022800089B2B1F5B47F04DC0522DFF820335A703F
:102290004DE089B2B1F5D27F04DC0622DFF80C33C1
:1022A0005A7044E089B2B1F5F07F04DC0722DFF810
:1022B000FC325A703BE089B2B1F5077F04DC08229A
:1022C000DFF8E8325A7032E089B2B1F5167F03DCEC
:1022D0000922B64B5A702AE089B2B1F5257F03DC9A
:1022E0000A22B24B5A7022E089B2B1F5347F03DC86
:1022F0000B22AE4B5A701AE089B2B1F5437F03DC72
:102300000C22AA4B5A7012E089B2B1F5527F03DC5D
:102310000D22A64B5A700AE089B2B1F5617F03DC49
:102320000E22A24B5A7002E00F22A04B5A7089B2C3
:102330001A2903DA00229D4B9A7069E089B2332989
:1023400003DA0122994B9A7062E089B24C2903DAD0
:102350000222964B9A705BE089B2652903DA032268
:10236000924B9A7054E089B27E2903DA04228F4B93
:102370009A704DE089B2972903DA05228B4B9A7047
:1023800046E089B2B02903DA0622884B9A703FE012
:1023900089B2C92903DA0722844B9A7038E089B2DE
:1023A000E22903DA0822814B9A7031E089B2FB29D5
:1023B00003DA09227D4B9A702AE089B2B1F58A7F4F
:1023C00003DA0A22794B9A7022E089B2B1F5967F3E
:1023D00003DC0B22754B9A701AE089B2B1F5A37F2A
:1023E00003DA0C22714B9A7012E089B2B1F5AF7F1B
:1023F00003DC0D226D4B9A700AE089B2B1F5BC7F07
:1024000003DA0E22694B9A7002E00F22674B9A7032
:1024100089B21A2903DA0022644BDA7069E089B2C2
:10242000332903DA0122614BDA7062E089B24C2968
:1024300003DA02225D4BDA705BE089B2652903DAC8
:1024400003225A4BDA7054E089B27E2903DA04225F
:10245000564BDA704DE089B2972903DA0522534BC7
:10246000DA7046E089B2B02903DA06224F4BDA70FF
:102470003FE089B2C92903DA07224C4BDA7038E011
:1024800089B2E22903DA0822484BDA7031E089B2D6
:10249000FB2903DA0922454BDA702AE089B2B1F54B
:1024A0008A7F03DA0A22414BDA7022E089B2B1F561
:1024B000967F03DC0B223D4BDA701AE089B2B1F54E
:1024C000A37F03DA0C22394BDA7012E089B2B1F53E
:1024D000AF7F03DC0D22354BDA700AE089B2B1F52B
:1024E000BC7F03DA0E22314BDA7002E00F222F4B51
:1024F000DA70704710B50400200040B2FFF786FE86
:102500002B48007810F0FD00294908702848007811
:1025100050F0100026490870B82026490870264857
:102520000078C006FBD424480078C0F38100C0B214
:102530000228F8D11D48C3781C4882781B4841788E
:102540001A480078FFF75EFE64B2174810EB84006B
:10255000807810F007001949087064B2124810EB37
:102560008400C07810F01F0050F04000144908703B
:10257000114800788006FBD50F4800784006FBD54F
:102580000C48007810F03F000A4908700A480078AB
:10259000C0F38100C0B20328F8D164B2024830F819
:1025A0002400C0B210BD00002C0BFF1F840BFF1FC6
:1025B00001400640004006400640064004400640F8
:1025C0000540064001B4BDF80000002805D0BDF864
:1025D0000000401EADF80000F5E701B0704780B57F
:1025E000012201211A2000F09FF901220121192066
:1025F00000F09AF923211A2000F04CFA2321192027
:1026000000F048FA01BD80B501207A490860012038
:10261000794908604FF4C870FFF7D4FF002077496C
:10262000086077480068002804D1012073490860D9
:10263000002016E001207149086000206D49086003
:102640004FF4C870FFF7BEFF00206B4908606C486C
:102650000068002804D0012068490860002000E0DC
:10266000012002BD80B50020634908600020614957
:1026700008604FF4C870FFF7A5FF01205E490860AD
:102680004FF4C870FFF79EFF01205A4908604FF4CD
:10269000C870FFF797FF01BD80B50020564908605C
:1026A0004FF4C870FFF78EFF0020524908604FF4C6
:1026B000C870FFF787FF01204F4908604FF4C870CA
:1026C000FFF780FF00204C4908604FF4C870FFF707
:1026D00079FF01BD80B50020474908604FF4C870FC
:1026E000FFF770FF0120434908604FF4C870FFF7FF
:1026F00069FF0120404908604FF4C870FFF762FF8E
:1027000000203D4908604FF4C870FFF75BFF01BD32
:1027100080B50020384908600020384908604FF42F
:10272000C870FFF74FFF0120334908604FF4C870AD
:10273000FFF748FF32480068002807D001202F49E2
:10274000086000202C490860002006E001202B4989
:102750000860002028490860012002BD38B5050046
:1027600008242000441EC0B2002818D0280603D533
:1027700001202049086002E000201E4908606D0029
:102780004FF4C870FFF71EFF01201B4908604FF48B
:10279000C870FFF717FF002017490860E1E731BD57
:1027A00038B5082400250020144908602000441E84
:1027B000C0B2002815D06D0000200F4908604FF40A
:1027C000C870FFF7FFFE01200B4908604FF4C87086
:1027D000FFF7F8FE0A4800680028E7D055F0010529
:1027E000E4E7012005490860002003490860EDB2D4
:1027F000280032BD6400FE436800FE43E402FE434D
:102800006402FE4370B504000D0000262900C9B221
:10281000200080B200F00AF8002805D1761CF6B23C
:10282000142EF3D1002000E0012070BD38B5040063
:102830000D00FFF7E8FE002801D1002019E042203A
:10284000FFF78CFFFFF764FF002803D1FFF70AFFB3
:1028500000200EE02000C0B2FFF780FFFFF758FF16
:102860002800C0B2FFF77AFFFFF752FFFFF7FAFE2A
:10287000012032BDF8B504000D001600002732001B
:10288000D2B2290089B2200000F00AF8002805D150
:102890007F1CFFB21E2FF2D1002000E00120F2BD0C
:1028A00070B504000D001600FFF7ADFE002801D141
:1028B000002037E04220FFF751FFFFF729FF0028F3
:1028C00003D1FFF7CFFE00202CE03000C0B2FFF7AD
:1028D00045FFFFF71DFFFFF7C5FEFFF794FE002839
:1028E00001D100201EE04320FFF738FFFFF710FF63
:1028F000002803D1FFF7B6FE002013E0ADB2002D93
:102900000DD0FFF74DFF2070ADB2012D02D1FFF7C2
:10291000E1FE01E0FFF7C0FE641C6D1EEEE7FFF76D
:10292000A1FE012070BD000070B504000D0016006E
:102930004FF480712000C0B200F08AF86DB2002D13
:1029400011D1E4B26011404951F82000E4B26111A4
:102950003D4A52F821104969012214F01F039A40A0
:102960009143416136E0E4B26011374951F82000EB
:10297000E4B26111344A52F821104969012214F07D
:102980001F039A4011434161F6B2002E11D1E4B207
:1029900060112D4951F820000068012114F01F0238
:1029A00091408843E4B26111274A52F8211008602F
:1029B00010E0E4B26011244951F8200000680121C0
:1029C00014F01F0291400843E4B261111E4A52F80C
:1029D0002110086070BD10B50400E4B260111A49FE
:1029E00051F82000406914F01F01C840C00703D40B
:1029F0007B21164800F099F8E4B26011124951F8B1
:102A00002000012114F01F029140C16010BD10B5DB
:102A10000400E4B260110C4951F82000406914F040
:102A20001F01C840C00703D58C21084800F07DF87D
:102A3000E4B26011044951F82000006914F01F014C
:102A4000C84010F0010010BD180BFF1F283A00000D
:102A500010B4294A12684FF40073C0B24409A3406D
:102A60001A43254B1A60C0B24211244B53F822205E
:102A7000012310F01F04A340C2F8A030C0B210F030
:102A80001F02C0B243111D4C54F8233043F82210EA
:102A900010BC704710B4184A12684FF40073C0B2EB
:102AA0004409A3401A43144B1A60C0B24211134B9D
:102AB00053F82220012310F01F04A340C2F8A030D5
:102AC00031F4E061C0B210F01F02C0B243110B4CF0
:102AD00054F8233053F8222012F4E0621143C0B2BC
:102AE00010F01F02C0B24311044C54F8233043F8D5
:102AF000221010BC7047000038800440880BFF1F74
:102B0000DFF800F09D0CFF1FDFF800F0C10CFF1F85
:102B1000BFF34F8F4648006810F4E0604549084312
:102B200043490860BFF34F8FFEE738B504000D003E
:102B3000002000F08DF82A0021003F4800F0C0F886
:102B4000002000F0A2F84FF47A7000F0FBF8F2E7F2
:102B500038B504000D00210049B2032000F00AFA44
:102B6000200032BD10B50024042000F02FFA04200C
:102B700000F062FA002841D1002000F069F804203A
:102B800000F05AFA012801D101200400002000F0D1
:102B90007CF82A4800F094F84FF4FA7000F0D2F86C
:102BA000E4B2012CEBD1042000F046FA0028E6D173
:102BB000042000F041FA002806D1002000F065F85A
:102BC000642000F0BFF8F3E7042000F035FA012894
:102BD00006D1002000F059F8322000F0B3F8F3E7F6
:102BE000174800F06DF8FFF78BFF642000F0AAF89B
:102BF0000020FFF789FFFFF78BFFC0E710BD10B57E
:102C000010480468012000F023F8012000F03DF88E
:102C1000E4B20F200C4900FB0412E4B221000B487F
:102C200000F04EF84FF47A7000F08CF8EDE70000F9
:102C30000CED00E00400FA05003B0000683C0000D9
:102C40007C3B000004ED00E01004FF1FB0390000E1
:102C500010B5040064B2042C07DA0122012164B229
:102C60001648205CFFF760FE0EE004200400200000
:102C7000441E40B2002807D00122012164B20F484F
:102C8000205CFFF751FEF2E710BD10B5040064B2FE
:102C9000042C05DA64B20948205CFFF79CFE0CE0C6
:102CA000042004002000441E40B2002805D064B275
:102CB0000248205CFFF78FFEF4E710BDBC0BFF1F3E
:102CC0000EB400B582B003A90091024600AB012109
:102CD000034878440A30FDF79FFB06BC5DF810FB03
:102CE000650F000030B4134C246854F08074114D0B
:102CF0002C60114C246854F001040F4D2C600F4CD3
:102D0000246821000E4C24684FF47A7594FBF5F486
:102D100004FB00F423005C1822008A4203D2074C13
:102D20002468A242FBD3054C24689442FBD330BCF8
:102D300070470000FCED00E0001000E0041000E02F
:102D4000B410FF1F10B504002000441E002804D05A
:102D50004FF47A70FFF7C6FFF6E710BD2DE9F84390
:102D600004000D0064B2002C08D0022C2CD018D323
:102D7000042C4FD03BD3052C5FD071E0DFF8340238
:102D8000006850F48060DFF82C1208604FF4407146
:102D90006620FFF75DFE4FF440716720FFF758FE95
:102DA0005EE0DFF81002006850F40060DFF8041203
:102DB00008604FF440714320FFF74AFE4FF4407122
:102DC0004420FFF745FE4BE0DFF8E801006850F4CF
:102DD0008050DFF8E01108604FF440716320FFF786
:102DE00037FE4FF440716220FFF732FE38E0DFF823
:102DF000C401006850F40050DFF8B81108604FF4C7
:102E000040712A20FFF724FE4FF440712B20FFF77A
:102E10001FFE25E0DFF8A001006850F48060DFF8B5
:102E2000981108604FF440714E20FFF711FE4FF4E7
:102E300040714F20FFF70CFE12E0DFF87C010068C4
:102E400050F40060DFF8701108604FF44071892081
:102E5000FFF7FEFD4FF440718820FFF7F9FDFFE713
:102E600064B2DFF8580150F82400C07810F0F30085
:102E700064B2DFF8481151F82410C87064B2DFF86A
:102E80003C0150F82400807864B2DFF8301151F82A
:102E90002410887064B2002C02D064B2012C07D1D7
:102EA000DFF81C0100684FF47A714843814606E060
:102EB000DFF8100100684FF47A7148438146280119
:102EC000B9FBF0F00600B6B2B6F5005F02DB41F6E2
:102ED000FF700600B9FBF5F0B6B2B0EB06100700C4
:102EE000BFB2202F03DBDC213748FFF71EFE64B2A0
:102EF000324850F82400007810F0E0008046B6B266
:102F0000300A10F01F0050EA080064B22B4951F853
:102F10002410087064B2294850F82400467064B246
:102F2000264850F82400807A10F0E000804617F020
:102F30001F0050EA080064B2204951F8241088723A
:102F400064B21E4850F82400007C50F0880064B23F
:102F50001A4951F82410087464B2184850F8240033
:102F6000C07850F00C0064B2144951F82410C870B5
:102F7000BDE8F18340B2114A52F8202012791206BE
:102F8000F8D540B20D4A52F82020D171704770B583
:102F900004000D0016003000461E002808D095F9E8
:102FA000001049B2200040B2FFF7E4FF6D1CF2E7C9
:102FB00070BD000034800440288004409C0BFF1F3B
:102FC000B410FF1FBC10FF1F643A000010B50400CE
:102FD00064B2082C0DDA0022002164B22148205C82
:102FE000FFF7A2FC032164B21E48205CFFF752FDEC
:102FF00014E0082004002000441E40B200280DD038
:103000000022002164B21748205CFFF78DFC0321E9
:1030100064B21448205CFFF73DFDECE710BD10B52D
:10302000040064B20F48205CFFF7F1FC002801D1D6
:10303000002000E0012010BD10B50400200040B2C7
:10304000FFF7EDFF00280AD10A20FFF77BFE2000E2
:1030500040B2FFF7E4FF002801D1002000E001208A
:1030600010BD0000B40BFF1F2DE9F84380460C0093
:103070005FEA981010F00700C0B25FEA40194046BE
:10308000103810F03F00C0B2C000050015EB090079
:103090000700E4B217EBC400401E0600F6B2FFB210
:1030A000BE420DD3002200213800C0B2FFF73CFC25
:1030B0004FF481713800C0B2FFF7CAFC7F1CEDE706
:1030C000BDE8F1832DE9F84F04000D0016001F0044
:1030D0009DF92880DDF82C90DDF830A04FFA88F8B3
:1030E000B8F1000F02D15FF0010B11E04FFA88F840
:1030F000B8F1010F02D15FF0020B09E04FFA88F836
:10310000B8F1020F02D15FF0040B01E05FF0100B89
:103110004FFA88F8B8F1000F05D16748854202D30D
:103120006648A84221D24FFA88F8B8F1010F09D1B8
:103130006148854206D36248A84203D315F00300D4
:10314000032812D14FFA88F8B8F1020F09D15A4872
:10315000854206D35B48A84203D315F0030000283C
:1031600003D061215848FFF7E0FCB9F5004F03D3C5
:1031700063215548FFF7D9FC5448006850F002001D
:10318000524908605248006850F0020050490860F7
:1031900064B260014F49455064B2600100F1804063
:1031A00010F510400661002064B2610101F1804118
:1031B00011F5104188805FFA8BFB64B2600100F169
:1031C000804010F51040A0F814B04FFA88F85FEA7C
:1031D000082010F4E0604FFA88F818F0070108435F
:1031E00064B2610101F1804111F51041C880484687
:1031F0004004400C64B2610101F1804111F51041BD
:10320000C88248464004400C64B2610101F180412B
:1032100011F51041C8833048006830F080002E4915
:1032200008605FFA8BFB64B2600100F1804010F52A
:103230001040C0F808B0002064B2610101F1804183
:1032400011F51041C8605FEACA7002D4D9F10000DC
:1032500000E0002064B2610101F1804111F51041EC
:1032600088614CF20A0064B2610101F1804111F5FC
:1032700010418883FFB27809313050F0800064B289
:103280001649605416493800C0B2FFF7E1FB5946B1
:10329000C9B22800FFF7E8FE124800680121A140EA
:1032A000884310490860104800680121A140084384
:1032B0000D490860BDE8F18F10F00F4013F10F4089
:1032C00012F10F4010F10F40EC3900004080044033
:1032D0003C8004400090004000800040001002400C
:1032E000000101000C80004024800040012110F00A
:1032F0001F02914040B24209764B43F822107047BA
:10330000012110F01F02914040B24209724B43F874
:103310002210704710B504007048046000F081F876
:103320000028FBD000F002F8002010BDE0B501201D
:1033300002904FF416700190002000901B23674804
:10334000026867490020FFF7BDFE66480068400834
:103350004000644908605720FFF7D2FF62480068C8
:1033600050F00100604908600020FFF7BFFF5F498F
:103370001B20FFF76DFB5E491D20FFF769FB07BDB2
:1033800080B55C4890F90000042818D10320594901
:1033900008705720FFF7B4FF5FF0006056490860DF
:1033A0005048006850F001004E4908605FF000602E
:1033B00051490860494800685049086005E05720B5
:1033C000FFF79EFF02204B49087001BD01204949CB
:1033D00008704548006850F0010043490860704794
:1033E00080B50420434908705FF0FF30424908600F
:1033F0005720FFF77BFF3F4890F9000001280FD0CE
:103400003C4890F900000228F5D1042039490870A1
:103410005FF0FF30384908605720FFF767FFEAE7A1
:1034200001BD10B582B0002400208DF80000FFF728
:10343000D6F880211220FFF7E5F9002804D13048A2
:10344000FFF73EFC002043E03220FFF77BFC0B221D
:10345000012100A8FFF70EFA002804D12948FFF740
:103460002FFC002034E09DF800102748FFF728FCCF
:10347000264801782648FFF723FC9DF80000212804
:1034800025D10020040021480078A4B280B28442F3
:1034900018D2A4B21F4810EB44004178A4B21D48D2
:1034A00010F8140080B2FFF7ADF9002808D1A4B2DB
:1034B000184810F814101848FFF702FC002007E025
:1034C000641CE0E71548FFF7FBFB012000E000204B
:1034D00016BD000000E100E080E100E0C010FF1F29
:1034E00050F00F400C800040248000400201020098
:1034F00012010900C00BFF1FA09004401090004073
:10350000143C00007C3C0000243B0000280CFF1F02
:103510009C3B0000C40BFF1F2C3C0000483B0000FC
:10352000DFF800F02B2B0000DFF800F0452D000045
:10353000F02054490870534800780006FBD55148E4
:1035400000787121084201D0002000E0012070477E
:1035500080B54D48006850F400204B490860494848
:1035600000780006FBD5F020464908700A20FFF7D6
:10357000DBFF01BD10B582B00400A4B24FF480504F
:1035800000FB04F000900920404908709DF80200FB
:103590003F4908709DF801003E4908709DF8000001
:1035A0003D490870FFF7C4FF002801D100200EE05C
:1035B000A4B2002C0AD15FF0FF327FF001034FF478
:1035C0008161200080B200F003F800E0012016BD08
:1035D000F0B583B006000F0014001D00B6B24FF422
:1035E0008050BFB200FB06700190BFB2082097FB6D
:1035F000F0F101FB1071002903D0EA212748FFF701
:103600008FFFBFB2B7F5805F03DDEC212348FFF7E2
:1036100087FF9DF806001E4908709DF805001D49AA
:1036200008709DF804001C49087000949DF8030080
:103630001B4908709DF802001A4908709DF80100A6
:10364000194908709DF800001849087007200F49B3
:10365000087000959DF80300154908709DF8020058
:10366000144908709DF80100134908709DF8000086
:1036700012490870FFF75CFF002801D1002000E02C
:103680000120FEBD0000024004F00140070002409E
:1036900006000240050002400400024070390000AC
:1036A0000B0002400A0002400900024008000240EC
:1036B0000F0002400E0002400D0002400C000240CC
:1036C000F0B4114E366834000F4E366856F47F065B
:1036D0000D4F3E600E0616F0706656EA007617052E
:1036E00017F470073E431F0417F470273E43074F3B
:1036F0003E6000263500EDB29D4201D26D1CFAE716
:10370000014E3460F0BC704700F00140448004403A
:1037100080B500F095F800F02AF800F00AF8FFF7FD
:1037200021FA012201210420FFF7FEF800F0A8F899
:10373000FEE780B50420FEF7DDFE3349086032481D
:1037400000684FF47A714843304908602F48006898
:103750002F490968C1F30361491CB0FBF1F02D4901
:1037600008605FF4E1310320FFF7F8FA01BD2DE9AD
:10377000F8432948294988420DD000208046B8F5F1
:10378000826F08D2254850F82800234941F82800C4
:1037900018F10108F3E7204800F0C2F820480700BC
:1037A0002048060020480400A01B80464046B0F197
:1037B0000108002804D030783870761C7F1CF5E7AB
:1037C0001A4881461A480500B5EB09008046404674
:1037D000B0F10108002805D0002089F8000019F197
:1037E0000109F4E713481449144A531A984643460A
:1037F000B3F10108002B04D00B780370491C401C66
:10380000F5E7BDE8F1830000B810FF1FB410FF1FFB
:1038100044800440BC10FF1F0000FF1F0000000098
:103820001004FF1FA8190000042200005C0EFF1FF7
:103830001411FF1F6C0CFF1F203500001037000013
:1038400080B500F008F80C4800884FF6FE7108407B
:103850000949088001BDEFF3118072B64CF2205186
:10386000064A11804DF62811044A1180C0B2002882
:1038700000D162B670470000002005400E200540D0
:1038800080B52148FFF746FD0FF25901672000F08F
:1038900058F80FF28501102000F053F8FFF7A0FD53
:1038A0004FF41671184800F001F8F7E738B5040036
:1038B0000D0016480088ADF8020015480088ADF8E4
:1038C000000002220DF102010320FFF760FB2A0035
:1038D00021000320FFF75BFB022200A90320FFF772
:1038E00056FB31BD38B500240A4805685FF0FF304B
:1038F000084908601D20040035FA04F0C00701D50E
:10390000FFF73EFD31BD00005C0EFF1F32100000CE
:103910006A100000A090044080B5FFF757FD01BD7C
:1039200010B504004FF4007094FBF0F101FB10415E
:10393000002903D01E210B48FFF7F7F80A4804605E
:1039400010BD38B504000D000748006807498842DB
:1039500003D030210348FFF7E8F864B2034840F889
:10396000245031BDA03A000008ED00E00000FF1F28
:10397000453A5C4B36305C4B36305F64656D6F5C4E
:103980007368657869616E67746F755C7368616E82
:10399000677765696A695C436869705C7372635CC8
:1039A0004D4B36305F666C6173682E63000000001B
:1039B0000A2A2A2A2A64656661756C745F697372C3
:1039C00020656E7465726564206F6E207665637421
:1039D0006F722025642A2A2A2A2A0A0A2573204976
:1039E0006E7465727275707400000000453A5C4B2D
:1039F00036305C4B36305F64656D6F5C736865783C
:103A000069616E67746F755C7368616E677765690D
:103A10006A695C436869705C7372635C4D4B3630F5
:103A20005F646D612E630000453A5C4B36305C4B41
:103A300036305F64656D6F5C7368657869616E6769
:103A4000746F755C7368616E677765696A695C43FA
:103A50006869705C7372635C4D4B36305F67706988
:103A60006F2E6300453A5C4B36305C4B36305F64FA
:103A7000656D6F5C7368657869616E67746F755C9E
:103A80007368616E677765696A695C436869705CD1
:103A90007372635C4D4B36305F756172742E6300D8
:103AA000453A5C4B36305C4B36305F64656D6F5C1D
:103AB0007368657869616E67746F755C7368616E51
:103AC000677765696A695C436869705C7372635C97
:103AD0006D6973632E63000010B50749794418318E
:103AE000064C7C44163404E00A68081D51188847C7
:103AF0000146A142F8D110BD740000008000000012
:103B0000417373657274696F6E206661696C656478
:103B100020696E202573206174206C696E652025F4
:103B2000640A00000A476574204944207375636382
:103B3000657373A3AC53454E534F522049442069DB
:103B400073203078257800000A4F563737323520F9
:103B5000526567697374657220436F6E666967208A
:103B60005375636365737321000000008FD4FFFFFA
:103B7000B80200005C0EFF1F000000000ABDF8D074
:103B8000D0BDE2CBF8B2D9D7F7A3ACC7EBD6D8D02B
:103B9000C2CBA2C8EBB9CCBCFE0000000A436F6EDA
:103BA000666967205265676973746572204E756D2A
:103BB0006265722069732025642000004EF68851EA
:103BC000CEF20001086840F4700008604FF0007009
:103BD000E1EE100A7047000000F00BF8002801D059
:103BE000FFF77AFF0020C046C046FFF749FE00F00D
:103BF00002F80120704700F001B80000074638467F
:103C000000F002F8FBE7000001491820ABBEFBE71B
:103C1000260002000ABEAFB8E63A53434342D0B48E
:103C2000CAFDBEDDB4EDCEF3000000000ABEAFB8A1
:103C3000E63AD0B4BCC4B4E6C6F730782578CAA753
:103C4000B0DC000038B504460D46284600F006F802
:103C5000A84218BF0024204632BD00000149FEF7EB
:103C600077BF00BF2C0CFF1F0ABDF8C8EBCBC0D13B
:103C7000ADBBB7B5C8B4FDA3A10000000ABEAFB884
:103C8000E63AB6C1C8A14944CAA7B0DC00000000AA
:103C9000C046C046FFF792FFFFF79EFF00000000FE
:103CA0000000000000000000000000000000000014
:103CB0000000000000000000FFFFFFFFFFFFFFFF0C
:103CC00000000000000000000000000000000000F4
:103CD00000000000000000000000000000000000E4
:103CE00000000000FFFFFFFFFFFF000000000000DA
:103CF00000000000000000000000000000000000C4
:103D000000000000000000000000000000000000B3
:103D100000000000000000000000000000000000A3
:043D2000000000009F
:0400000500003C912A
:00000001FF
